:100000000EC028C040C126C025C024C023C022C0C5
:1000100021C020C02CC31EC07BC31CC01BC0112428
:100020001FBECFE5D2E0DEBFCDBF10E0A0E6B0E05E
:10003000EAE9FBE002C005900D92AA3BB107D9F7AF
:1000400021E0AAEBB0E001C01D92A036B207E1F7B3
:10005000A7D3A1C5D5CFC1D2BED2ACD20895AED25E
:1000600008950F931F93CF93DF93D82F8B0181E0D7
:10007000B6D289E698E10197F1F700C00000DD23D0
:1000800059F0C0E082E09CD2BC0180E090E0F80131
:100090000995CF5FDC13F6CF80E0A1D2DF91CF913D
:1000A0001F910F910895833001F128F4813079F088
:1000B0008230A1F005C0853031F1F0F0863051F189
:1000C00081E097D280E0A1D280E099D2089580E0CB
:1000D00090D281E09AD280E092D2089580E089D2D5
:1000E00080E093D281E08BD2089581E082D280E0DB
:1000F0008CD281E084D2089581E07BD281E085D2E8
:1001000080E07DD2089580E074D281E07ED281E0EB
:1001100076D2089581E06DD281E077D281E06FD20E
:1001200008959091BA008093BB00913009F4BBDF31
:100130000895CF93C82F813039F080E05AD280E003
:1001400064D280E05CD203C08091BB00ACDFC0937E
:10015000BA0080E0CF9108951092BB0046D280E0B3
:10016000E8DF80E008958091BE00811104C081E045
:100170008093BE00C3D208959093BD008093BC00CD
:1001800008958F929F92AF92BF92CF92DF92EF929B
:10019000FF920F931F93CF93DF936B017C016894C1
:1001A000AA24A1F80F2EF7E0BF2EF02D01E016E0F3
:1001B0006894882482F8D8E00F2EF9E09F2EF02D65
:1001C00082E0C816D104E104F10418F4C02F812F95
:1001D00002C0CA2D8B2D94E0C916D104E104F104AC
:1001E00010F0C82D8D2F98E0C916D104E104F10458
:1001F00010F0CD2F892D63EB70E069D285B7877E33
:10020000806185BF85B7806285BF85B7806285BF05
:10021000889585B78F7D85BF85B78F7D85BF80B574
:10022000807F80BD8091BE00882399F08C2F90E064
:10023000A0E0B0E0C816D906EA06FB0628F0C81A06
:10024000D90AEA0AFB0A03C0C12CD12C760110920C
:10025000BE00C114D104E104F10409F0B1CFE09172
:10026000BC00F091BD00309709F00995DF91CF9166
:100270001F910F91FF90EF90DF90CF90BF90AF90C4
:100280009F908F9008951F920F920FB60F92112496
:100290002F933F934F935F936F937F938F939F938E
:1002A000AF93BF93CF93DF93EF93FF93E0910A0156
:1002B000F0910B0180812091090190E0022E02C093
:1002C000959587950A94E2F780FD59C080910701C2
:1002D0009091080130E001973FEF8F3F9307D9F7E6
:1002E000C0910501D0910601A1E0B0E002C0AA0FC3
:1002F000BB1F2A95E2F748E050E031E060E070E093
:10030000CE01272F01972FEF8F3F9207D9F78081DA
:1003100090E08A239B23892B11F0632B03C0832F4A
:1003200080956823330F4150510951F780910301A3
:100330009091040120E001972FEF8F3F9207D9F7AA
:100340008091C0002091BF0090E001968F739927A3
:1003500030E08217930769F0E091C000F0E0EF53BE
:10036000FF4F60838091C0008F5F8F738093C000C8
:1003700006C081E090E09093020180930101FF911B
:10038000EF91DF91CF91BF91AF919F918F917F912D
:100390006F915F914F913F912F910F900FBE0F90F2
:1003A0001F901895EF92FF920F931F93CF93DF93B7
:1003B00080910C0190910D01A0910E01B0910F015F
:1003C00086509F4FAF4FBF4F80930C0190930D010C
:1003D000A0930E01B0930F0100E111E0C0E0D0E066
:1003E000FE01EE0FFF1FEE0FFF1FEC0FFD1FEE0FC4
:1003F000FF1FEC0FFD1FE05FFE4F8081882309F493
:100400005CC0FE01EE0FFF1FEE0FFF1FEC0FFD1F84
:10041000EE0FFF1FEC0FFD1FE05FFE4F8581968101
:10042000A781B085892B8A2B8B2B09F446C0FE014E
:10043000EE0FFF1FEE0FFF1FEC0FFD1FEE0FFF1F54
:10044000EC0FFD1FE05FFE4F41815281638174819B
:1004500085819681A781B085840F951FA61FB71F40
:1004600040910C0150910D0160910E0170910F01AE
:10047000481759076A077B0700F1D8011996ED91D3
:10048000FC911A97C801099580910C0190910D017A
:10049000A0910E01B0910F01FE01EE0FFF1FEE0FB4
:1004A000FF1FEC0FFD1FEE0FFF1FEC0FFD1FE05FA6
:1004B000FE4F81839283A383B4832196055F1F4FF0
:1004C000C230D10509F08CCFDF91CF911F910F91F0
:1004D000FF90EF90089586E1E0E1F1E0DF011D92E9
:1004E0008A95E9F784EF97D082ED91E0A7D09DD06F
:1004F00008950F931F9300911501109116012091FB
:10050000170130911801012B022B032B79F0009178
:100510002001109121012091220130912301012B12
:10052000022B032BA1F421E030E002C020E030E0F8
:10053000F901EE0FFF1FEE0FFF1FE20FF31FEE0F8B
:10054000FF1F2E0F3F1FF901E05FFE4F02C0E0E0EA
:10055000F0E011821282138214826583768387838E
:10056000908752874187CF011F910F91089500977F
:1005700079F021E0FC01208340910C0150910D01A4
:1005800060910E0170910F014183528363837483E4
:100590000895009731F0FC011082118212821382BB
:1005A00014820895009729F0FC01458356836783E0
:1005B0007087089517B883E886B9089516B8089526
:1005C00097B1987F8770892B87B9369A3699FECF75
:1005D00084B195B10895BC980895BB9A0895882375
:1005E00011F0C39A0895C398089587B3876087BBB5
:1005F0000895882311F0C29A0895C2980895882317
:1006000011F0C09A0895C0980895882311F0C19AF6
:100610000895C1980895F8941ABC13BE89BD82E06C
:100620008ABD13BE12BE78940895F89489B780618C
:1006300089BF83B7856083BF789408952091260190
:1006400030912701232B49F0209128013091290175
:10065000232B61F421E030E002C020E030E0220FE3
:10066000331FF901EA5DFE4F9183808308951F9245
:100670000F920FB60F9211242F933F934F935F93D6
:100680006F937F938F939F93AF93BF93EF93FF935A
:10069000E0912601F0912701309709F00995E0914A
:1006A0002801F0912901309709F00995FF91EF9108
:1006B000BF91AF919F918F917F916F915F914F917A
:1006C0003F912F910F900FBE0F901F901895709330
:1006D0002B0160932A01F89414BE94B7977F94BFBE
:1006E00091B5986191BDE82FF0E0E055FF4F808112
:1006F00081BD81B5806481BD78940895F89484B7F4
:10070000877F84BF81B5886181BD11BC78940895CD
:100710001F920F920FB60F9211242F933F934F9376
:100720005F936F937F938F939F93AF93BF93EF9359
:10073000FF93E0912A01F0912B01309709F0099580
:10074000FF91EF91BF91AF919F918F917F916F91A9
:100750005F914F913F912F910F900FBE0F901F907F
:10076000189580916000811104C081E08093600041
:1007700072DC0895CF92DF92EF92FF926B017C01C1
:100780006EDCC0922C01D0922D01E0922E01F092ED
:100790002F0110926000FF90EF90DF90CF900895AE
:1007A000CF92DF92EF92FF9296DE55DCD5DCA7D197
:1007B0008AEB93E030D081EB93E0DEDCC12CD12CCE
:1007C0007601809160008130B1F4C701B60140D05C
:1007D000823019F0853029F0F4CF95D16B017C017E
:1007E000F0CF60912C0170912D0180912E0190919C
:1007F0002F01C7DCE6CF80E090E0FF90EF90DF9024
:10080000CF9008958091350190913601C2DE81E04C
:10081000809332010895CF93DF93EC0182E08093BF
:10082000370180E086DC42E054E06AEF70E080E06F
:1008300090E05FDE9093360180933501D0933401D0
:10084000C093330181E080933201DF91CF9108950D
:10085000CF92DF92EF92FF9220913201211103C0DB
:10086000809137017BC0DC01CB012091370123301F
:1008700079F018F4223041F06CC0243009F44AC0F9
:10088000253009F462C065C083E08093370164C0FD
:10089000E1E6F0E030E020E0C080D180E280F3804B
:1008A0008C159D05AE05BF0508F0322F2F5F3D96D4
:1008B000253091F7832F90E0FC01EE0FFF1FE80F2A
:1008C000F91FEE0FFF1FEE0FFF1F8E0F9F1FFC0182
:1008D000EF59FF4FF0933101E0933001848121DC27
:1008E00081E027DCE0913001F091310141855285B2
:1008F00063857485809135019091360153DE1092A5
:100900003201809135019091360131DE84E080938F
:10091000370122C080E00DDC8091330190913401D9
:10092000892B79F0E0913301F0913401A0913001ED
:10093000B091310115966D917D918D919C91189793
:10094000099585E08093370107C082E080933701E5
:1009500003C082E08093370180913701FF90EF90D0
:10096000DF90CF900895CF93DF93FC01892B01F1A5
:10097000848195810097F9F0408151816281738172
:100980004115510561057105C9F0EF01440F551F6F
:10099000440F551F60E070E0F7D01E821F8218865A
:1009A00019861A861B861C861D8680E090E008C08A
:1009B0008FEF9FEF05C08EEF9FEF02C08EEF9FEF8E
:1009C000DF91CF9108958F929F92AF92BF92CF9275
:1009D000DF92EF92FF92CF93DF93EC01892B09F422
:1009E0005AC0EE81FF81EE0FFF1FEE0FFF1F8C81BB
:1009F0009D81E80FF91F40835183628373831A86B8
:100A00001B861C861D86C880D980EA80FB80C114A5
:100A1000D104E104F10409F444C0EC81FD819601A4
:100A2000220F331F220F331F2E0F3F1F4191519171
:100A3000619171918A859B85AC85BD854A015B0179
:100A4000880E991EAA1EBB1EC501B4018A869B860C
:100A5000AC86BD862E173F0749F7A701960172D0D5
:100A60002A873B874C875D878E819F81A885B985C2
:100A70000196A11DB11D8E839F83A887B9878C1510
:100A80009D05AE05BF0550F01E821F82188619868F
:100A900080E090E00BC08FEF9FEF08C080E090E017
:100AA00005C01A861B861C861D86EECFDF91CF916E
:100AB000FF90EF90DF90CF90BF90AF909F908F907E
:100AC0000895009781F06115710581F0FC01828520
:100AD0009385A485B585FB0180839183A283B3832D
:100AE00080E090E008958FEF9FEF08958FEF9FEFE4
:100AF0000895AB01BC0182EA90E065DF089582EAC7
:100B000090E031DF0895CF93DF9300D000D0CDB7D0
:100B1000DEB719821A821B821C8269E775E084E1C4
:100B2000A0DABE016F5F7F4F82EA90E0CADF698181
:100B30007A818B819C810F900F900F900F90DF91A5
:100B4000CF910895A1E21A2EAA1BBB1BFD010DC077
:100B5000AA1FBB1FEE1FFF1FA217B307E407F5076D
:100B600020F0A21BB30BE40BF50B661F771F881F49
:100B7000991F1A9469F760957095809590959B01DF
:100B8000AC01BD01CF010895DC0101C06D9341505E
:0A0B90005040E0F70895F894FFCFFD
:100B9A00010A000000003C000000E80300006400B5
:100BAA000000033C000000E8030000C80000000148
:100BBA003C000000E80300002C010000053C000096
:100BCA0000E803000090010000023C000000E80376
:100BDA0000000A00000038010000000000000000C8
:0A0BEA0000010203040506072021A4
:00000001FF
