:100000000EC028C0A6C126C025C024C023C022C05F
:1000100021C020C01FC01EC01DC01CC01BC0112499
:100020001FBECFE5D2E0DEBFCDBF10E0A0E6B0E05E
:10003000ECECF7E002C005900D92AC36B107D9F7B1
:1000400020E0ACE6B0E001C01D92A03CB207E1F7B1
:10005000D7D0BAC3D5CF17B883E886B9089597B17A
:10006000987F8770892B87B9369A3699FECF84B1ED
:1000700095B10895CF93DF93FC01892B01F1848121
:1000800095810097F9F0408151816281738141151A
:10009000510561057105C9F0EF01440F551F440F6B
:1000A000551F60E070E056D31E821F8218861986A5
:1000B0001A861B861C861D8680E090E008C08FEFA4
:1000C0009FEF05C08EEF9FEF02C08EEF9FEFDF9195
:1000D000CF9108958F929F92AF92BF92CF92DF926D
:1000E000EF92FF92CF93DF93EC01892B09F45AC072
:1000F000EE81FF81EE0FFF1FEE0FFF1F8C819D81B0
:10010000E80FF91F40835183628373831A861B862D
:100110001C861D86C880D980EA80FB80C114D1046A
:10012000E104F10409F444C0EC81FD819601220F41
:10013000331F220F331F2E0F3F1F419151916191A9
:1001400071918A859B85AC85BD854A015B01880ECE
:10015000991EAA1EBB1EC501B4018A869B86AC8669
:10016000BD862E173F0749F7A7019601D1D22A87EE
:100170003B874C875D878E819F81A885B9850196D5
:10018000A11DB11D8E839F83A887B9878C159D05FE
:10019000AE05BF0550F01E821F821886198680E0CA
:1001A00090E00BC08FEF9FEF08C080E090E005C0AB
:1001B0001A861B861C861D86EECFDF91CF91FF909D
:1001C000EF90DF90CF90BF90AF909F908F90089569
:1001D000009781F06115710581F0FC01828593859E
:1001E000A485B585FB0180839183A283B38380E0DE
:1001F00090E008958FEF9FEF08958FEF9FEF0895A0
:10020000CF93DF93CDB7DEB7CE54D1090FB6F894B4
:10021000DEBF0FBECDBF87B3866087BBBC98C29AD6
:10022000C198C49A7E012DE3E20EF11C8EE0F70125
:1002300011928A95E9F78FE090E0A0E0B0E0F70135
:1002400080839183A283B383CE01019623969FAFCF
:100250008EAF23972F961CAE1DAE1EAE1FAE2F97EE
:10026000FADEC70107DF04E02FEF40E050E068E36B
:1002700070E087E390E0FCD060E679E080E090E019
:100280000AD183E0ECDE6C01E12CF12C2F96CCAE90
:10029000DDAEEEAEFFAE2F9780E690E0FDD1C70158
:1002A000B60110D28AE690E007D2B701A601CE01CE
:1002B000CD9610DFBE01655B7F4FCE01CD9688DF06
:1002C00085E690E0E9D12F966CAD7DAD8EAD9FAD0A
:1002D0002F97F8D18AE690E0EFD12F968CAD9DADA7
:1002E000AEADBFAD2F9784369105A105B10518F4C9
:1002F000C198C29827C0AC01BD014456510961099B
:100300007109483C51056105710518F4C19AC298FC
:1003100019C0AC01BD014C52514061097109483C02
:1003200051056105710518F4C198C29A0BC0845F2C
:100330009140A109B1098C309240A105B10510F49A
:10034000C19AC29A87EA91E60197F1F700C00000CE
:1003500098CF1F920F920FB60F9211242F933F93B5
:100360004F935F936F937F938F939F93AF93BF93BD
:10037000CF93DF93EF93FF93E091BA00F091BB002E
:1003800080812091B90090E0022E02C0959587955A
:100390000A94E2F780FD59C08091B6009091B700B1
:1003A00030E001973FEF8F3F9307D9F7C091B4003A
:1003B000D091B500A1E0B0E002C0AA0FBB1F2A9502
:1003C000E2F748E050E031E060E070E0CE01272F36
:1003D00001972FEF8F3F9207D9F7808190E08A2312
:1003E0009B23892B11F0632B03C0832F80956823F7
:1003F000330F4150510951F78091B2009091B300F1
:1004000020E001972FEF8F3F9207D9F780916D0081
:1004100020916C0090E001968F73992730E082174D
:10042000930769F0E0916D00F0E0E259FF4F6083BF
:1004300080916D008F5F8F7380936D0006C081E0A7
:1004400090E09093AF008093AE00FF91EF91DF9129
:10045000CF91BF91AF919F918F917F916F915F915C
:100460004F913F912F910F900FBE0F901F901895B5
:100470000F939093BF008093BE007093BD00609374
:10048000BC005093BB004093BA002093B900009386
:10049000B8000F9108950F931F9310926D00109262
:1004A0006C001092AF001092AE00E091BE00F0918F
:1004B000BF004081A1E0B0E09D010090B80002C003
:1004C000220F331F0A94E2F7242B2083E091BC0013
:1004D000F091BD002081AD010090B80002C0440F32
:1004E000551F0A94E2F7242B20832091B9002F3F57
:1004F000F1F0E091BE00F091BF003081AD0102C08B
:10050000440F551F2A95E2F7242F2095232320839B
:10051000E091BC00F091BD002081AD010090B900D8
:1005200002C0440F551F0A94E2F7242B20838B014D
:100530009C01000F111F221F331F000F111F221FCC
:10054000331F000F111F221F331FA9019801261B03
:10055000370B480B590B60E472E48FE090E0D8D081
:10056000C90106979093B1008093B00023503109E0
:100570003093B3002093B2003093B5002093B400C1
:100580009695879505979093B7008093B60080E085
:100590001F910F910895CF93DF932091B000309178
:1005A000B1002115310509F473C0CFB7F894E0917B
:1005B000BC00F091BD00908121E030E00090B800D7
:1005C00002C0220F331F0A94E2F7209529232083CB
:1005D000E091B000F091B100339620E031972FEF19
:1005E000EF3FF207D9F748E050E091E0A1E0B0E03A
:1005F000D0E0282F292381F0E091BC00F091BD00CC
:1006000060819D010090B80002C0220F331F0A9440
:10061000E2F7262B208311C0E091BC00F091BD00D1
:100620003081BD010090B80002C0660F771F0A94A8
:10063000E2F7262F209523232083E091B000F0914C
:10064000B1002D2F31972FEFEF3FF207D9F7990F18
:100650004150510971F6E091BC00F091BD0020813C
:1006600081E090E00090B80002C0880F991F0A94C2
:10067000E2F7822B8083CFBF8091B0009091B100D0
:1006800020E001972FEF8F3F9207D9F721E030E06C
:10069000C901DF91CF910895CF93DF93EC01892BAE
:1006A00041F08881882329F0219675DF8991811195
:1006B000FCCFDF91CF910895EFDF8AE06CDF8DE012
:1006C0006ADF08950F931F93CF93DF93CDB7DEB703
:1006D00064970FB6F894DEBF0FBECDBFDC01CB012F
:1006E0008E010F5F1F4F24E1F80111922A95E9F75F
:1006F0004AE0B80136D0C801CFDF64960FB6F8944F
:10070000DEBF0FBECDBFDF91CF911F910F91089536
:10071000A1E21A2EAA1BBB1BFD010DC0AA1FBB1F05
:10072000EE1FFF1FA217B307E407F50720F0A21B77
:10073000B30BE40BF50B661F771F881F991F1A94E4
:1007400069F760957095809590959B01AC01BD010E
:10075000CF010895DC0101C06D9341505040E0F796
:100760000895BB274A3031F4992322F4BDE29095D5
:1007700081959F4F01C0BB27FB015527AA27880FF2
:10078000991FAA1FA41710F0A41B83955051B9F705
:10079000A05DAA3308F0A95DA193009779F7B11184
:1007A000B1931192CB0100C0DC01FC01672F719164
:1007B0007723E1F7329704C07C916D937083629147
:1007C000AE17BF07C8F30895F894FFCF5261773A88
:1007D0000046696C743A0000FFFFFFFFFFFFFFFF58
:1007E000FFFFFFFFFFFFFFFFFFFFFFFFFFFFFFFF19
:1007F000FFFFFFFFFFFFFFFFFFFFFFFFFFFFFFFF09
:10080000FFFFFFFFFFFFFFFFFFFFFFFFFFFFFFFFF8
:10081000FFFFFFFFFFFFFFFFFFFFFFFFFFFFFFFFE8
:00000001FF
